{
  "contractName": "power",
  "abi": [
    {
      "inputs": [],
      "payable": false,
      "stateMutability": "nonpayable",
      "type": "constructor"
    },
    {
      "constant": false,
      "inputs": [
        {
          "internalType": "uint256",
          "name": "v",
          "type": "uint256"
        },
        {
          "internalType": "uint256",
          "name": "c",
          "type": "uint256"
        }
      ],
      "name": "addPower",
      "outputs": [],
      "payable": false,
      "stateMutability": "nonpayable",
      "type": "function"
    },
    {
      "constant": true,
      "inputs": [],
      "name": "viewPower",
      "outputs": [
        {
          "internalType": "uint256",
          "name": "",
          "type": "uint256"
        }
      ],
      "payable": false,
      "stateMutability": "view",
      "type": "function"
    },
    {
      "constant": false,
      "inputs": [],
      "name": "checkPower",
      "outputs": [
        {
          "internalType": "uint256",
          "name": "",
          "type": "uint256"
        }
      ],
      "payable": false,
      "stateMutability": "nonpayable",
      "type": "function"
    }
  ],
  "bytecode": "0x608060405234801561001057600080fd5b5060008081905550600060018190555061016c8061002f6000396000f3fe608060405234801561001057600080fd5b50600436106100415760003560e01c806302368a2c14610046578063d1809e251461007e578063ddec18a31461009c575b600080fd5b61007c6004803603604081101561005c57600080fd5b8101908080359060200190929190803590602001909291905050506100ba565b005b6100866100dd565b6040518082815260200191505060405180910390f35b6100a4610129565b6040518082815260200191505060405180910390f35b816000808282540192505081905550806001600082825401925050819055505050565b6000806001546000540290506000811180156100fa575061271081105b1561010c576000600281905550610120565b61271081111561011f5760016002819055505b5b60025491505090565b60006001546000540290509056fea265627a7a72315820cc757a59ab2d630cb7934b7cdb3fbe1badf76b6ee48fbffc20d1794259d2c1c364736f6c63430005100032",
  "source": "// SPDX-License-Identifier: MIT\npragma solidity >=0.4.22 <0.9.0;\n\ncontract power {\n  \n  uint voltage;\n  uint current;\n  \n  uint role;\n  constructor() public{\n    voltage=0;\n    current=0;\n  }\n\n  function addPower(uint v, uint c) public {\n    voltage+=v;\n    current+=c;\n  }\n\n  function viewPower() public view returns (uint) {\n    return (voltage*current);\n  }\n\n  function checkPower() public returns(uint) {\n    uint p;\n    p=voltage*current;\n    if(p>0 && p<10000) {\n      role=0;\n    } else if(p>10000) {\n      role=1;\n    }\n    return (role);\n  }\n  \n}\n",
  "sourcePath": "/Users/maddysravs/lower-electricity-bills-using-blockchain/contracts/power.sol",
  "compiler": {
    "name": "solc",
    "version": "0.5.16+commit.9c3226ce.Emscripten.clang"
  },
  "schemaVersion": "3.4.7",
  "updatedAt": "2022-06-30T20:36:16.540Z",
  "networkType": "ethereum",
  "devdoc": {
    "methods": {}
  },
  "userdoc": {
    "methods": {}
  }
}